{
  "address": "0x5FbDB2315678afecb367f032d93F642f64180aa3",
  "abi": [
    {
      "inputs": [],
      "stateMutability": "nonpayable",
      "type": "constructor"
    },
    {
      "anonymous": false,
      "inputs": [
        {
          "indexed": true,
          "internalType": "string",
          "name": "name",
          "type": "string"
        },
        {
          "indexed": false,
          "internalType": "uint256",
          "name": "contactInfo",
          "type": "uint256"
        }
      ],
      "name": "storeContact",
      "type": "event"
    },
    {
      "inputs": [
        {
          "internalType": "string",
          "name": "name",
          "type": "string"
        },
        {
          "internalType": "uint256",
          "name": "contactNo",
          "type": "uint256"
        }
      ],
      "name": "Store",
      "outputs": [],
      "stateMutability": "nonpayable",
      "type": "function"
    },
    {
      "inputs": [],
      "name": "i_owner",
      "outputs": [
        {
          "internalType": "address",
          "name": "",
          "type": "address"
        }
      ],
      "stateMutability": "view",
      "type": "function"
    }
  ],
  "transactionHash": "0x96cb2d50f383c35e77635a68521ec1624de00ac4aae12c8275a77f939e3fab44",
  "args": [],
  "numDeployments": 1,
  "solcInputHash": "2eb86cdd47aaba4e26b8ce8ad2769b32",
  "bytecode": "0x60a060405234801561001057600080fd5b503373ffffffffffffffffffffffffffffffffffffffff1660808173ffffffffffffffffffffffffffffffffffffffff1660601b8152505060805160601c610423610065600039600060c801526104236000f3fe608060405234801561001057600080fd5b50600436106100365760003560e01c8063626d29c31461003b578063dba6335f14610057575b600080fd5b6100556004803603810190610050919061027a565b610075565b005b61005f6100c6565b60405161006c9190610317565b60405180910390f35b8160405161008391906103ac565b60405180910390207f549351dc5ab8f1bc700f0e988a54f517444bb2ae4f66ff80f5cd0a3df2e65d0a826040516100ba91906103d2565b60405180910390a25050565b7f000000000000000000000000000000000000000000000000000000000000000081565b6000604051905090565b600080fd5b600080fd5b600080fd5b600080fd5b6000601f19601f8301169050919050565b7f4e487b7100000000000000000000000000000000000000000000000000000000600052604160045260246000fd5b61015182610108565b810181811067ffffffffffffffff821117156101705761016f610119565b5b80604052505050565b60006101836100ea565b905061018f8282610148565b919050565b600067ffffffffffffffff8211156101af576101ae610119565b5b6101b882610108565b9050602081019050919050565b82818337600083830152505050565b60006101e76101e284610194565b610179565b90508281526020810184848401111561020357610202610103565b5b61020e8482856101c5565b509392505050565b600082601f83011261022b5761022a6100fe565b5b813561023b8482602086016101d4565b91505092915050565b6000819050919050565b61025781610244565b811461026257600080fd5b50565b6000813590506102748161024e565b92915050565b60008060408385031215610291576102906100f4565b5b600083013567ffffffffffffffff8111156102af576102ae6100f9565b5b6102bb85828601610216565b92505060206102cc85828601610265565b9150509250929050565b600073ffffffffffffffffffffffffffffffffffffffff82169050919050565b6000610301826102d6565b9050919050565b610311816102f6565b82525050565b600060208201905061032c6000830184610308565b92915050565b600081519050919050565b600081905092915050565b60005b8381101561036657808201518184015260208101905061034b565b83811115610375576000848401525b50505050565b600061038682610332565b610390818561033d565b93506103a0818560208601610348565b80840191505092915050565b60006103b8828461037b565b915081905092915050565b6103cc81610244565b82525050565b60006020820190506103e760008301846103c3565b9291505056fea264697066735822122065a85f6f0ffc0f83e783fcd9678102595f38e825bb5f3c1d742bd41cc50eec9b64736f6c63430008080033",
  "devdoc": {
    "kind": "dev",
    "methods": {},
    "version": 1
  },
  "userdoc": {
    "kind": "user",
    "methods": {},
    "version": 1
  },
  "storageLayout": {
    "storage": [],
    "types": null
  }
}