{
  "address": "0xb77fA9E3E251F434573972429EDfbaBD755A9d09",
  "abi": [
    {
      "inputs": [],
      "stateMutability": "nonpayable",
      "type": "constructor"
    },
    {
      "anonymous": false,
      "inputs": [
        {
          "indexed": false,
          "internalType": "string",
          "name": "name",
          "type": "string"
        },
        {
          "indexed": false,
          "internalType": "uint256",
          "name": "contactInfo",
          "type": "uint256"
        }
      ],
      "name": "storeContact",
      "type": "event"
    },
    {
      "inputs": [
        {
          "internalType": "string",
          "name": "name",
          "type": "string"
        },
        {
          "internalType": "uint256",
          "name": "contactNo",
          "type": "uint256"
        }
      ],
      "name": "Store",
      "outputs": [],
      "stateMutability": "nonpayable",
      "type": "function"
    },
    {
      "inputs": [],
      "name": "i_owner",
      "outputs": [
        {
          "internalType": "address",
          "name": "",
          "type": "address"
        }
      ],
      "stateMutability": "view",
      "type": "function"
    }
  ],
  "transactionHash": "0xa5a8d6f15b4f6824070b8a5cbef53485e720bf199018f5903923bbed938caa70",
  "args": [],
  "numDeployments": 2,
  "solcInputHash": "b4c262fee102871cac5873c3941b8933",
  "bytecode": "0x60a060405234801561001057600080fd5b503373ffffffffffffffffffffffffffffffffffffffff1660808173ffffffffffffffffffffffffffffffffffffffff1660601b8152505060805160601c61041b610065600039600060b4015261041b6000f3fe608060405234801561001057600080fd5b50600436106100365760003560e01c8063626d29c31461003b578063dba6335f14610057575b600080fd5b61005560048036038101906100509190610266565b610075565b005b61005f6100b2565b60405161006c9190610303565b60405180910390f35b7f549351dc5ab8f1bc700f0e988a54f517444bb2ae4f66ff80f5cd0a3df2e65d0a82826040516100a69291906103b5565b60405180910390a15050565b7f000000000000000000000000000000000000000000000000000000000000000081565b6000604051905090565b600080fd5b600080fd5b600080fd5b600080fd5b6000601f19601f8301169050919050565b7f4e487b7100000000000000000000000000000000000000000000000000000000600052604160045260246000fd5b61013d826100f4565b810181811067ffffffffffffffff8211171561015c5761015b610105565b5b80604052505050565b600061016f6100d6565b905061017b8282610134565b919050565b600067ffffffffffffffff82111561019b5761019a610105565b5b6101a4826100f4565b9050602081019050919050565b82818337600083830152505050565b60006101d36101ce84610180565b610165565b9050828152602081018484840111156101ef576101ee6100ef565b5b6101fa8482856101b1565b509392505050565b600082601f830112610217576102166100ea565b5b81356102278482602086016101c0565b91505092915050565b6000819050919050565b61024381610230565b811461024e57600080fd5b50565b6000813590506102608161023a565b92915050565b6000806040838503121561027d5761027c6100e0565b5b600083013567ffffffffffffffff81111561029b5761029a6100e5565b5b6102a785828601610202565b92505060206102b885828601610251565b9150509250929050565b600073ffffffffffffffffffffffffffffffffffffffff82169050919050565b60006102ed826102c2565b9050919050565b6102fd816102e2565b82525050565b600060208201905061031860008301846102f4565b92915050565b600081519050919050565b600082825260208201905092915050565b60005b8381101561035857808201518184015260208101905061033d565b83811115610367576000848401525b50505050565b60006103788261031e565b6103828185610329565b935061039281856020860161033a565b61039b816100f4565b840191505092915050565b6103af81610230565b82525050565b600060408201905081810360008301526103cf818561036d565b90506103de60208301846103a6565b939250505056fea26469706673582212206f026ea9c6b57c2abca9a804357499ab960f077b5e6dddfa1e0a7c419951e15f64736f6c63430008080033",
  "devdoc": {
    "kind": "dev",
    "methods": {},
    "version": 1
  },
  "userdoc": {
    "kind": "user",
    "methods": {},
    "version": 1
  },
  "storageLayout": {
    "storage": [],
    "types": null
  }
}