{
  "address": "0x412bc555508e4e91bACaCFCB0Af717F7a4249A46",
  "abi": [
    {
      "inputs": [],
      "stateMutability": "nonpayable",
      "type": "constructor"
    },
    {
      "anonymous": false,
      "inputs": [
        {
          "indexed": false,
          "internalType": "string",
          "name": "name",
          "type": "string"
        },
        {
          "indexed": false,
          "internalType": "uint256",
          "name": "contactInfo",
          "type": "uint256"
        }
      ],
      "name": "contactRemoved",
      "type": "event"
    },
    {
      "anonymous": false,
      "inputs": [
        {
          "indexed": false,
          "internalType": "string",
          "name": "name",
          "type": "string"
        },
        {
          "indexed": false,
          "internalType": "uint256",
          "name": "contactInfo",
          "type": "uint256"
        }
      ],
      "name": "storeContact",
      "type": "event"
    },
    {
      "inputs": [
        {
          "internalType": "string",
          "name": "name",
          "type": "string"
        },
        {
          "internalType": "uint256",
          "name": "contactNo",
          "type": "uint256"
        }
      ],
      "name": "RemoveContact",
      "outputs": [],
      "stateMutability": "nonpayable",
      "type": "function"
    },
    {
      "inputs": [
        {
          "internalType": "string",
          "name": "name",
          "type": "string"
        },
        {
          "internalType": "uint256",
          "name": "contactNo",
          "type": "uint256"
        }
      ],
      "name": "Store",
      "outputs": [],
      "stateMutability": "nonpayable",
      "type": "function"
    },
    {
      "inputs": [
        {
          "internalType": "address",
          "name": "",
          "type": "address"
        },
        {
          "internalType": "string",
          "name": "",
          "type": "string"
        }
      ],
      "name": "UserToContact",
      "outputs": [
        {
          "internalType": "uint256",
          "name": "",
          "type": "uint256"
        }
      ],
      "stateMutability": "view",
      "type": "function"
    },
    {
      "inputs": [],
      "name": "i_owner",
      "outputs": [
        {
          "internalType": "address",
          "name": "",
          "type": "address"
        }
      ],
      "stateMutability": "view",
      "type": "function"
    }
  ],
  "transactionHash": "0xf05f8c05c5cba27953c98ec0fc5d4cbf56bcc37f8ba530e3c2f94436cf8dd1fa",
  "args": [],
  "numDeployments": 3,
  "solcInputHash": "b467b480ce30b93e21590ad200a5cd6a",
  "bytecode": "0x60a060405234801561001057600080fd5b503373ffffffffffffffffffffffffffffffffffffffff1660808173ffffffffffffffffffffffffffffffffffffffff1660601b8152505060805160601c6106ea6100736000396000818160dd0152818161019a015261028d01526106ea6000f3fe608060405234801561001057600080fd5b506004361061004c5760003560e01c8063626d29c3146100515780637fec11b81461006d578063b6bcf05e14610089578063dba6335f146100b9575b600080fd5b61006b6004803603810190610066919061043f565b6100d7565b005b6100876004803603810190610082919061043f565b610193565b005b6100a3600480360381019061009e91906104f9565b610250565b6040516100b09190610564565b60405180910390f35b6100c161028b565b6040516100ce919061058e565b60405180910390f35b806000807f000000000000000000000000000000000000000000000000000000000000000073ffffffffffffffffffffffffffffffffffffffff1673ffffffffffffffffffffffffffffffffffffffff168152602001908152602001600020836040516101449190610623565b9081526020016040518091039020819055507f549351dc5ab8f1bc700f0e988a54f517444bb2ae4f66ff80f5cd0a3df2e65d0a8282604051610187929190610684565b60405180910390a15050565b60008060007f000000000000000000000000000000000000000000000000000000000000000073ffffffffffffffffffffffffffffffffffffffff1673ffffffffffffffffffffffffffffffffffffffff168152602001908152602001600020836040516102019190610623565b9081526020016040518091039020819055507f8ca26ab42b38c8f0ebdf935a41bdb35e5ad852e3b3b7f9b3eaa5ac22a6e8dead8282604051610244929190610684565b60405180910390a15050565b600060205281600052604060002081805160208101820180518482526020830160208501208183528095505050505050600091509150505481565b7f000000000000000000000000000000000000000000000000000000000000000081565b6000604051905090565b600080fd5b600080fd5b600080fd5b600080fd5b6000601f19601f8301169050919050565b7f4e487b7100000000000000000000000000000000000000000000000000000000600052604160045260246000fd5b610316826102cd565b810181811067ffffffffffffffff82111715610335576103346102de565b5b80604052505050565b60006103486102af565b9050610354828261030d565b919050565b600067ffffffffffffffff821115610374576103736102de565b5b61037d826102cd565b9050602081019050919050565b82818337600083830152505050565b60006103ac6103a784610359565b61033e565b9050828152602081018484840111156103c8576103c76102c8565b5b6103d384828561038a565b509392505050565b600082601f8301126103f0576103ef6102c3565b5b8135610400848260208601610399565b91505092915050565b6000819050919050565b61041c81610409565b811461042757600080fd5b50565b60008135905061043981610413565b92915050565b60008060408385031215610456576104556102b9565b5b600083013567ffffffffffffffff811115610474576104736102be565b5b610480858286016103db565b92505060206104918582860161042a565b9150509250929050565b600073ffffffffffffffffffffffffffffffffffffffff82169050919050565b60006104c68261049b565b9050919050565b6104d6816104bb565b81146104e157600080fd5b50565b6000813590506104f3816104cd565b92915050565b600080604083850312156105105761050f6102b9565b5b600061051e858286016104e4565b925050602083013567ffffffffffffffff81111561053f5761053e6102be565b5b61054b858286016103db565b9150509250929050565b61055e81610409565b82525050565b60006020820190506105796000830184610555565b92915050565b610588816104bb565b82525050565b60006020820190506105a3600083018461057f565b92915050565b600081519050919050565b600081905092915050565b60005b838110156105dd5780820151818401526020810190506105c2565b838111156105ec576000848401525b50505050565b60006105fd826105a9565b61060781856105b4565b93506106178185602086016105bf565b80840191505092915050565b600061062f82846105f2565b915081905092915050565b600082825260208201905092915050565b6000610656826105a9565b610660818561063a565b93506106708185602086016105bf565b610679816102cd565b840191505092915050565b6000604082019050818103600083015261069e818561064b565b90506106ad6020830184610555565b939250505056fea26469706673582212206392dd6b274d13c76c973a2d11fb23b88efc05559365475af78aca72f268ee6464736f6c63430008080033",
  "devdoc": {
    "kind": "dev",
    "methods": {},
    "version": 1
  },
  "userdoc": {
    "kind": "user",
    "methods": {},
    "version": 1
  },
  "storageLayout": {
    "storage": [
      {
        "astId": 9,
        "contract": "contracts/Contact.sol:Contact",
        "label": "UserToContact",
        "offset": 0,
        "slot": "0",
        "type": "t_mapping(t_address,t_mapping(t_string_memory_ptr,t_uint256))"
      }
    ],
    "types": {
      "t_address": {
        "encoding": "inplace",
        "label": "address",
        "numberOfBytes": "20"
      },
      "t_mapping(t_address,t_mapping(t_string_memory_ptr,t_uint256))": {
        "encoding": "mapping",
        "key": "t_address",
        "label": "mapping(address => mapping(string => uint256))",
        "numberOfBytes": "32",
        "value": "t_mapping(t_string_memory_ptr,t_uint256)"
      },
      "t_mapping(t_string_memory_ptr,t_uint256)": {
        "encoding": "mapping",
        "key": "t_string_memory_ptr",
        "label": "mapping(string => uint256)",
        "numberOfBytes": "32",
        "value": "t_uint256"
      },
      "t_string_memory_ptr": {
        "encoding": "bytes",
        "label": "string",
        "numberOfBytes": "32"
      },
      "t_uint256": {
        "encoding": "inplace",
        "label": "uint256",
        "numberOfBytes": "32"
      }
    }
  }
}